:020000040000FA
:04000000C6EF00F057
:08000800056ED8CF06F0E0CF31
:1000100007F00001E9CF0DF0EACF08F0E1CF09F0D9
:10002000E2CF0AF0D9CF0BF0DACF0CF0F3CF14F017
:10003000F4CF15F0FACF16F000C00FF001C010F0A9
:1000400002C011F003C012F004C013F0F0A82CEFAE
:1000500000F0F0B24FEF00F00FC000F010C001F060
:1000600011C002F012C003F013C004F00DC0E9FF8C
:1000700008C0EAFF088E09C0E1FF0AC0E2FF0BC01A
:10008000D9FF0CC0DAFF14C0F3FF15C0F4FF16C08F
:10009000FAFF055007C0E0FF06C0D8FF1000F19836
:1000A000F0922CEF00F027502902F3CF01F0F4CFAB
:1000B00000F02A02F350002628502902F3500020B5
:1000C000026E000C016A026A006A036A2B5002E1A8
:1000D0002A5018E0100E2C6ED8902836293600369B
:1000E00003362B50035C02E12A50005C07E32A50E0
:1000F000005ED8A003062B50035ED880013602367E
:100100002C2EEAD7000C2A50295C04E229C001F009
:1001100004D003D02AC001F000D0000C9EA8FED766
:10012000AD6E000C93968A96080E016E00D000000A
:10013000018E0ED0019E2532D8B08A86D8A08A962C
:10014000018C06D0019C012EF6D700D000008A86D3
:10015000A70EE96EE92EFED700D001BEEBD701BC99
:10016000F1D7000CEA6A250EE96EEF500DE0060E9D
:10017000016E006A002EFED7012EFBD77B0E006EAB
:10018000002EFED7EF2EF3D72CEF03F0F86AD09EA7
:10019000088EEA6AE96AB886080EAF6E020EB06E83
:1001A000A60EAC6E900EAB6E93968A86C150C00BB5
:1001B0000F09C16E070EB46E186A196A246AF088B6
:1001C000C00EF212800ED56EC150C00B0B09C16E6D
:1001D000C050C00B0709C06EC09EC280958483A426
:1001E00057D0958883B854D0958C83BC51D0040ED9
:1001F000016EC250C30B0110C26E216A2150070864
:1002000009E3C282C2B2FED7C4502226000E2322C6
:10021000212AF4D7233222322332223223322232CD
:100220001F0E2316360E225C256E000E2358266EF6
:10023000286E25C027F02A6A7F0E296E34DF02C09F
:1002400027F001C026F002C029F001C028F02B6A77
:10025000630E2A6E37DF02C028F001C027F001C00C
:1002600029F07F0E2A6E4FDF01C01EF0290E006EAE
:10027000002EFED70000939A8A9A010E4FDF1E507F
:100280004DDF010E256E4EDF1EC025F04BDFCBD1BA
:10029000958483B457D0958883A854D0958C83BC1B
:1002A00051D0080E016EC250C30B0110C26E216AFC
:1002B0002150070809E3C282C2B2FED7C4502226E9
:1002C000000E2322212AF4D7233222322332223273
:1002D000233222321F0E2316370E225C256E000EAB
:1002E0002358266E286E25C027F02A6A7F0E296EB5
:1002F000DADE02C027F001C026F002C029F001C0FA
:1003000028F02B6A620E2A6EDDDE02C028F001C0E2
:1003100027F001C029F07F0E2A6EF5DE01C01FF024
:10032000290E006E002EFED7000093988A98020EC8
:10033000F5DE1F50F3DE020E256EF4DE1FC025F041
:10034000F1DE71D1958483B457D0958883B854D0A9
:10035000958C83AC51D00C0E016EC250C30B0110B2
:10036000C26E216A2150070809E3C282C2B2FED7D9
:10037000C4502226000E2322212AF4D7233222320F
:1003800023322232233222321F0E23162E0E225CFB
:10039000256E000E2358266E286E25C027F02A6A87
:1003A0007F0E296E80DE02C027F001C026F002C059
:1003B00029F001C028F02B6A650E2A6E83DE02C088
:1003C00028F001C027F001C029F07F0E2A6E9BDEC5
:1003D00001C020F0290E006E002EFED70000929A78
:1003E000899A030E9BDE205099DE030E256E9ADE5D
:1003F00020C025F097DE17D1958483A45DD0958821
:1004000083A85AD0958C83BC57D0245207E1010EA3
:10041000246E090E83DE090E256E84DE0C0E016E3D
:10042000C250C30B0110C26E216A2150070809E3B4
:10043000C282C2B2FED7C4502226000E2322212A35
:10044000F4D72332223223322232233222321F0EB9
:1004500023162E0E225C256E000E2358266E286E63
:1004600025C027F02A6A7F0E296E1DDE02C027F004
:1004700001C026F002C029F001C028F02B6A650EE9
:100480002A6E20DE02C028F001C027F001C029F04A
:100490007F0E2A6E38DE01C020F0939A8A9A9398D4
:1004A0008A98040E3BDE205039DE040E256E3ADEBB
:1004B00020C025F037DEB7D0958483B459D0958815
:1004C00083A856D0958C83AC53D00C0E016EC250CD
:1004D000C30B0110C26E216A2150070809E3C282D2
:1004E000C2B2FED7C4502226000E2322212AF4D7FE
:1004F0002332223223322232233222321F0E23169B
:100500002E0E225C256E000E2358266E286E25C006
:1005100027F02A6A7F0E296EC6DD02C027F001C0CF
:1005200026F002C029F001C028F02B6A650E2A6E61
:10053000C9DD02C028F001C027F001C029F07F0EFC
:100540002A6EE1DD01C020F0290E006E002EFED7DC
:10055000000093988A98929A899A050EDFDD2050C0
:10056000DDDD050E256EDEDD20C025F0DBDD5BD098
:10057000958483A458D0958883B855D0958C83AC46
:1005800052D00C0E016EC250C30B0110C26E216A14
:100590002150070809E3C282C2B2FED7C450222606
:1005A000000E2322212AF4D7233222322332223290
:1005B000233222321F0E23162E0E225C256E000ED1
:1005C0002358266E286E25C027F02A6A7F0E296ED2
:1005D0006ADD02C027F001C026F002C029F001C088
:1005E00028F02B6A650E2A6E6DDD02C028F001C06E
:1005F00027F001C029F07F0E2A6E85DD01C020F0B2
:10060000290E006E002EFED70000939A8A9A929AC5
:10061000899A060E83DD205081DD060E256E82DD6F
:1006200020C025F07FDD958483B40BD0958883B8F6
:1006300008D0242C06D0246A090E70DD090E256E20
:1006400071DD236A226A929A898A939A8A8A939898
:0C0650008A880A0E256E86D5C1D5FFD71A
:020000040030CA
:0E0000000002191E008300000FC00FE00F4029
:00000001FF
;PIC18F4520
;CRC=4D3A  CREATED="28-Apr-09 01:41"
