:020000040000FA
:04000000E4EF01F038
:08000800056ED8CF06F0E0CF31
:1000100007F00001E9CF0DF0EACF08F0E1CF09F0D9
:10002000E2CF0AF0D9CF0BF0DACF0CF0F3CF14F017
:10003000F4CF15F0FACF16F0FBCF17F000C00FF099
:1000400001C010F002C011F003C012F004C013F0A0
:100050009DAA2EEF00F09EBA26EF01F0A3AA34EF7E
:1000600000F0A4BA8AEF01F00FC000F010C001F058
:1000700011C002F012C003F013C004F00DC0E9FF7C
:1000800008C0EAFF088E09C0E1FF0AC0E2FF0BC00A
:10009000D9FF0CC0DAFF14C0F3FF15C0F4FF16C07F
:1000A000FAFF17C0FBFF055007C0E0FF06C0D8FFEE
:1000B00010002A50E96E2BC0EAFFEF6A010E2A24D5
:1000C000E96E000E2B20EA6EEF6A020E2A24E96E1A
:1000D000000E2B20EA6EEF6A030E2A24E96E000E52
:1000E0002B20EA6EEF6A040E2A24E96E000E2B2004
:1000F000EA6EEF6A2AEF01F02A50BF0804E3020E0D
:10010000016E3CD03BD02A50DF0804E3010E016EA3
:1001100035D034D02A50EF0804E3020E016E2ED001
:100120002DD02A50F00804E3030E016E27D026D00C
:100130002A50F10804E3010E016E20D01FD02A508E
:10014000F20804E3020E016E19D018D02A50F30809
:1001500004E3010E016E12D011D02A50F40804E31A
:10016000020E016E0BD00AD02A50F50804E3010EEE
:10017000016E04D003D0000E016E00D0000C30C020
:1001800035F0010E3124346E336A3150335C1AE29B
:100190009EAAFED7AECF32F032507F080FE3036A3B
:1001A0003350020F016E000E03220150340FE96E2E
:1001B000000E0320EA6E32C0EFFF02D093988A98B7
:1001C000332AE3D7340E016E026A3BEF01F09EA89A
:1001D000FED7AD6E000C2A5202E02B50F8DF2F6ADA
:1001E000010E2A5C2F5C12E2036A2F50020F016E8F
:1001F000000E032201502A0FE96E000E0320EA6E62
:10020000EFCF30F03050E3DF2F2AEAD7000C2A502E
:10021000E96E2BC0EAFF030EEF6E010E2A24E96E91
:10022000000E2B20EA6E2CC0EFFF020E2A24E96E8E
:10023000000E2B20EA6E2DC0EFFF030E2A24E96E7C
:10024000000E2B20EA6E2EC0EFFF000C2B6A250E4D
:100250002A6E2FD79EAAFED7AECF21F021507F085D
:100260002BE221C02AF048DF01C022F021C030F08B
:1002700022C031F084D702C003F001C02AF002C0CE
:100280002BF0EA6A250EE96E02C0E2FF01C0E1FF31
:10029000050E016EE6CFEEFF012EFCD725C02AF039
:1002A00026C02BF027C02CF028C02DF029C02EF03E
:1002B00092DF21C020F02BD020507F0828E2205070
:1002C000EF0825E320C02AF017DF010E015C226E43
:1002D00021C023F0225204E09EAAFED7AECF24F024
:1002E00020C021F02B6A250E2A6E21C02CF023C0DD
:1002F0002DF024C02EF08BDF25C02AF026C02BF075
:1003000027C02CF028C02DF029C02EF064DF9E9A63
:1003100034EF00F0A4AAFED76ECF21F0212C1AD022
:10032000A4AAFED76ECF21F02B6A220E2A6EB00E41
:100330002C6E070E2D6E21C02EF069DF22C02AF030
:1003400023C02BF024C02CF025C02DF026C02EF0A9
:1003500042DF37D02150020819E1A4AAFED76ECFA0
:1003600021F02B6A220E2A6EE00E2C6E2D6A21C01F
:100370002EF04DDF22C02AF023C02BF024C02CF039
:1003800025C02DF026C02EF026DF1BD021500308FB
:1003900018E1A4AAFED76ECF21F02B6A220E2A6E96
:1003A000F40E2C6E2D6A21C02EF031DF22C02AF00F
:1003B00023C02BF024C02CF025C02DF026C02EF039
:1003C0000ADFA49A34EF00F0F86AD09E088EEA6A39
:1003D000E96A7E96090EAF6EA20EAC6E900EAB6E01
:1003E0007C86080E6F6E020E7D6EA60E6C6E900EF1
:1003F0006B6EC150C00B0F09C16E070EB46E1C6A44
:100400001D6A1E6A1F6A929A898A939A8A8A9398A9
:0E0410008A889D8AA38AC00EF212FDD70300CF
:020000040030CA
:0E00000000021E1EF3838100FFC0FFE0FF40E0
:00000001FF
;PIC18F8722
;CRC=110D  CREATED="12-Apr-09 22:08"
