:020000040000FA
:040000003DEF02F0DE
:08000800056ED8CF06F0E0CF31
:1000100007F00001E9CF0DF0EACF08F0E1CF09F0D9
:10002000E2CF0AF0D9CF0BF0DACF0CF0F3CF14F017
:10003000F4CF15F0FACF16F0FBCF17F000C00FF099
:1000400001C010F002C011F003C012F004C013F0A0
:100050009DAA2EEF00F09EBA1BEF01F0A3AA34EF89
:1000600000F0A4BA8BEF01F00FC000F010C001F057
:1000700011C002F012C003F013C004F00DC0E9FF7C
:1000800008C0EAFF088E09C0E1FF0AC0E2FF0BC00A
:10009000D9FF0CC0DAFF14C0F3FF15C0F4FF16C07F
:1000A000FAFF17C0FBFF055007C0E0FF06C0D8FFEE
:1000B00010002950BF0804E3020E016E3CD03BD073
:1000C0002950DF0804E3010E016E35D034D02950E9
:1000D000EF0804E3020E016E2ED02DD02950F00857
:1000E00004E3030E016E27D026D02950F10804E363
:1000F000010E016E20D01FD02950F20804E3020E39
:10010000016E19D018D02950F30804E3010E016ED6
:1001100012D011D02950F40804E3020E016E0BD066
:100120000AD02950F50804E3010E016E04D003D073
:10013000000E016E00D0000C2FC034F0010E3024F0
:10014000336E326A3050325C1AE29EAAFED7AECFCE
:1001500031F031507F080FE3036A3250020F016E15
:10016000000E03220150330FE96E000E0320EA6EE9
:1001700031C0EFFF02D093988A98322AE3D7330E2A
:10018000016E026A2CEF01F09EA8FED7AD6E000C46
:10019000295202E02A50F8DF2E6A010E295C2E5CFB
:1001A00012E2036A2E50020F016E000E032201506C
:1001B000290FE96E000E0320EA6EEFCF2FF02F50CB
:1001C000E3DF2E2AEAD7000C2950E96E2AC0EAFFA5
:1001D000030EEF6E010E2924E96E000E2A20EA6E4E
:1001E0002BC0EFFF020E2924E96E000E2A20EA6ED2
:1001F0002CC0EFFF030E2924E96E000E2A20EA6EC0
:100200002DC0EFFF000C2950E96E2AC0EAFF020E54
:10021000EF6E010E2924E96E000E2A20EA6E2BC033
:10022000EFFF020E2924E96E000E2A20EA6E2CC090
:10023000EFFF7DEF01F09EAAFED7AECF21F0215057
:100240007F082BE221C029F034DF01C022F021C059
:100250002FF022C030F070D702C003F001C029F0A7
:1002600002C02AF0EA6A240EE96E02C0E2FF01C071
:10027000E1FF050E016EE6CFEEFF012EFCD724C094
:1002800029F025C02AF026C02BF027C02CF028C06A
:100290002DF07EDF21C020F03BD020507F0838E2D7
:1002A0002050EF0835E320C029F003DF010E015C88
:1002B000226E22521AE09EAAFED7AECF23F02A6AFF
:1002C000240E296E20C02BF021C02CF023C02DF06D
:1002D0007BDF24C029F025C02AF026C02BF027C0E0
:1002E0002CF028C02DF054DF13D02A6A240E296E7A
:1002F00020C02BF021C02CF086D724C029F025C0C7
:100300002AF026C02BF027C02CF028C02DF040DFAB
:100310009E9A34EF00F0A4AAFED76ECF21F0212CD4
:100320001AD0A4AAFED76ECF21F02A6A220E296E17
:10033000B00E2B6E070E2C6E21C02DF045DF22C0B3
:1003400029F023C02AF024C02BF025C02CF026C0B1
:100350002DF01EDF8FD02150020819E1A4AAFED78C
:100360006ECF21F02A6A220E296EE00E2B6E2C6AC7
:1003700021C02DF029DF22C029F023C02AF024C09B
:100380002BF025C02CF026C02DF002DF73D02150B9
:1003900003081AE1A4AAFED76ECF21F02A6A220E22
:1003A000296EB00E2B6E010E2C6E21C02DF00CDFCD
:1003B00022C029F023C02AF024C02BF025C02CF045
:1003C00026C02DF0E5DE56D0215004081AE1A4AA7B
:1003D000FED76ECF21F02A6A220E296EB00E2B6E48
:1003E0005C0E2C6E21C02DF0EFDE22C029F023C060
:1003F0002AF024C02BF025C02CF026C02DF0C8DE3A
:1004000039D0215005081AE1A4AAFED76ECF21F0F9
:100410002A6A220E296EB00E2B6E5F0E2C6E21C042
:100420002DF0D2DE22C029F023C02AF024C02BF008
:1004300025C02CF026C02DF0ABDE1CD021500608C4
:1004400019E1A4AAFED76ECF21F02A6A220E296EE6
:10045000B00E2B6E470E2C6E21C02DF0B5DE22C0E3
:1004600029F023C02AF024C02BF025C02CF026C090
:100470002DF08EDEA49A34EF00F0F86AD09E088E3C
:10048000EA6AE96A7E96090EAF6EA20EAC6E900E15
:10049000AB6E7C86080E6F6E020E7D6EA60E6C6EC5
:1004A000900E6B6EC150C00B0F09C16E070EB46E7B
:1004B0001C6A1D6A1E6A1F6A929A898A939A8A8A9E
:1004C00093988A889D8AA38AC00EF212FDD70300F2
:020000040030CA
:0E00000000021E1EF3838100FFC0FFE0FF40E0
:00000001FF
;PIC18F8722
;CRC=C5F2  CREATED="27-Apr-09 23:04"
