:020000040000FA
:0400000085EF01F097
:08000800056ED8CF06F0E0CF31
:1000100007F00001E9CF0DF0EACF08F0E1CF09F0D9
:10002000E2CF0AF0D9CF0BF0DACF0CF0F3CF14F017
:10003000F4CF15F0FACF16F0FBCF17F000C00FF099
:1000400001C010F002C011F003C012F004C013F0A0
:100050009DAA2EEF00F09EBA15EF01F00FC000F040
:1000600010C001F011C002F012C003F013C004F080
:100070000DC0E9FF08C0EAFF088E09C0E1FF0AC011
:10008000E2FF0BC0D9FF0CC0DAFF14C0F3FF15C0AC
:10009000F4FF16C0FAFF17C0FBFF055007C0E0FFD2
:1000A00006C0D8FF10003750BF0804E3020E016EEF
:1000B0003CD03BD03750DF0804E3010E016E35D051
:1000C00034D03750EF0804E3020E016E2ED02DD04D
:1000D0003750F00804E3030E016E27D026D03750C6
:1000E000F10804E3010E016E20D01FD03750F20852
:1000F00004E3020E016E19D018D03750F30804E360
:10010000010E016E12D011D03750F40804E3020E34
:10011000016E0BD00AD03750F50804E3010E016ED2
:1001200004D003D0000E016E00D0000C3DC042F0A0
:10013000010E3E24416E406A3E50405C1AE29EAA87
:10014000FED7AECF3FF03F507F080FE3036A405029
:10015000020F016E000E03220150410FE96E000EE6
:100160000320EA6E3FC0EFFF02D093988A98402A9E
:10017000E3D7410E016E026A26EF01F09EA8FED77A
:10018000AD6E000C375202E03850F8DF3C6A010EC9
:10019000375C3C5C12E2036A3C50020F016E000EB9
:1001A00003220150370FE96E000E0320EA6EEFCFF5
:1001B0003DF03D50E3DF3C2AEAD7000C3750E96EB2
:1001C00038C0EAFF030EEF6E010E3724E96E000E11
:1001D0003820EA6E39C0EFFF020E3724E96E000EB8
:1001E0003820EA6E3AC0EFFF030E3724E96E000EA6
:1001F0003820EA6E3BC0EFFF000C3750E96E38C084
:10020000EAFF020EEF6E010E3724E96E000E382071
:10021000EA6E39C0EFFF020E3724E96E000E382077
:10022000EA6E3AC0EFFF77EF01F09EAAFED7AECF9D
:100230002FF02F507F082BE22FC037F034DF01C0A2
:1002400030F02FC03DF030C03EF070D702C003F058
:1002500001C037F002C038F0EA6A320EE96E02C01F
:10026000E2FF01C0E1FF050E016EE6CFEEFF012EB9
:10027000FCD732C037F033C038F034C039F035C065
:100280003AF036C03BF07EDF2FC021F03BD021504A
:100290007F0838E22150EF0835E321C037F003DF53
:1002A000010E015C306E30521AE09EAAFED7AECF2E
:1002B00031F0386A320E376E21C039F02FC03AF073
:1002C00031C03BF07BDF32C037F033C038F034C090
:1002D00039F035C03AF036C03BF054DF13D0386AFD
:1002E000320E376E21C039F02FC03AF086D732C0B7
:1002F00037F033C038F034C039F035C03AF036C08A
:100300003BF040DF9E9A2EEF00F0F86AD09E088EF8
:10031000EA6AE96A7E96090EAF6EA20EAC6E900E86
:10032000AB6E7C86080E6F6E020E7D6EA60E6C6E36
:10033000900E6B6EC150C00B0F09C16E070EB46EEC
:100340001D6A1E6A1F6A206A929A898A939A8A8A0B
:1003500093988A889D8AC00EF212A4AAFED76ECF07
:1003600022F0222C26D0A4AAFED76ECF22F0196A42
:10037000F2BE198EF29E386A230E376EB00E396EB9
:10038000070E3A6E22C03BF019DF19BEF28E196AD1
:10039000F2BE198EF29E23C037F024C038F025C07B
:1003A00039F026C03AF027C03BF0ECDE19BEF28EE1
:1003B0003ED12250020825E1A4AAFED76ECF22F03A
:1003C000196AF2BE198EF29E386A230E376EE00E5D
:1003D000396E3A6A22C03BF0F1DE19BEF28E196A1C
:1003E000F2BE198EF29E23C037F024C038F025C02B
:1003F00039F026C03AF027C03BF0C4DE19BEF28EB9
:1004000016D12250030826E1A4AAFED76ECF22F00F
:10041000196AF2BE198EF29E386A230E376EB00E3C
:10042000396E010E3A6E22C03BF0C8DE19BEF28E64
:10043000196AF2BE198EF29E23C037F024C038F03C
:1004400025C039F026C03AF027C03BF09BDE19BE2C
:10045000F28EEDD02250040826E1A4AAFED76ECF7A
:1004600022F0196AF2BE198EF29E386A230E376E98
:10047000B00E396E5C0E3A6E22C03BF09FDE19BEA4
:10048000F28E196AF2BE198EF29E23C037F024C094
:1004900038F025C039F026C03AF027C03BF072DEB4
:1004A00019BEF28EC4D02250050826E1A4AAFED7B8
:1004B0006ECF22F0196AF2BE198EF29E386A230EB0
:1004C000376EB00E396E480E3A6E22C03BF076DEC3
:1004D00019BEF28E196AF2BE198EF29E23C037F051
:1004E00024C038F025C039F026C03AF027C03BF0D0
:1004F00049DE19BEF28E9BD02250060826E1A4AA3E
:10050000FED76ECF22F0196AF2BE198EF29E386ABB
:10051000230E376EB00E396E470E3A6E22C03BF096
:100520004DDE19BEF28E196AF2BE198EF29E23C0FC
:1005300037F024C038F025C039F026C03AF027C083
:100540003BF020DE19BEF28E72D0225007084BE13C
:10055000A4AAFED76ECF22F0196AF2BE198EF29EBF
:10056000386A230E376EB00E396E5C0E3A6E22C0BA
:100570003BF024DE19BEF28E196AF2BE198EF29E8D
:1005800023C037F024C038F025C039F026C03AF037
:1005900027C03BF0F7DD19BEF28EA4AAFED76ECFBE
:1005A00022F0196AF2BE198EF29E386A230E376E57
:1005B000B00E396E0C0E3A6E22C03BF0FFDD19BE54
:1005C000F28E196AF2BE198EF29E23C037F024C053
:1005D00038F025C039F026C03AF027C03BF0D2DD14
:1005E00019BEF28E24D02250090821E1196AF2BE08
:1005F000198EF29E386A230E376EB00E396E180EC1
:100600003A6E7F0E3B6EDADD19BEF28E196AF2BECB
:10061000198EF29E23C037F024C038F025C039F07F
:1006200026C03AF027C03BF0ADDD19BEF28E93D65E
:020630000300C5
:020000040030CA
:0E00000000021E1EF3838100FFC0FFE0FF40E0
:00000001FF
;PIC18F8722
;CRC=C52B  CREATED="28-Apr-09 02:04"
