:020000040000FA
:04000000B2EF00F06B
:08000800056ED8CF06F0E0CF31
:1000100007F00001E9CF0DF0EACF08F0E1CF09F0D9
:10002000E2CF0AF0D9CF0BF0DACF0CF0F3CF14F017
:10003000F4CF15F0FACF16F000C00FF001C010F0A9
:1000400002C011F003C012F004C013F0F0A82CEFAE
:1000500000F0F0B24FEF00F00FC000F010C001F060
:1000600011C002F012C003F013C004F00DC0E9FF8C
:1000700008C0EAFF088E09C0E1FF0AC0E2FF0BC01A
:10008000D9FF0CC0DAFF14C0F3FF15C0F4FF16C08F
:10009000FAFF055007C0E0FF06C0D8FF1000F19836
:1000A000F0922CEF00F028502A02F3CF01F0F4CFA9
:1000B00000F02B02F350002629502A02F3500020B2
:1000C000026E000C016A026A006A036A2C5002E1A7
:1000D0002B5018E0100E2D6ED89029362A36003697
:1000E00003362C50035C02E12B50005C07E32B50DD
:1000F000005ED8A003062C50035ED880013602367D
:100100002D2EEAD7000C2B502A5C04E22AC001F005
:1001100004D003D02BC001F000D0000C9EA8FED765
:10012000AD6E000C93968A96080E016E00D000000A
:10013000018E0ED0019E2432D8B08A86D8A08A962D
:10014000018C06D0019C012EF6D700D000008A86D3
:10015000A70EE96EE92EFED700D001BEEBD701BC99
:10016000F1D7000CF86AD09E088EEA6AE96AB88670
:10017000080EAF6E020EB06EA60EAC6E900EAB6E99
:1001800093968A86C150C00B0F09C16E070EB46EDC
:10019000186A196AF088C00EF212800ED56EC1502E
:1001A000C00B0B09C16EC050C00B0709C06EC09ECA
:1001B000C280948082A051D0040E016EC250C30B45
:1001C0000110C26E216A2150070809E3C282C2B23F
:1001D000FED7C4502226000E2322212AF4D7233230
:1001E000223223322232233222321F0E2316310EC4
:1001F000225C246E000E2358256E296E24C028F040
:100200002B6A7F0E2A6E4FDF02C026F001C025F058
:1002100002C02AF001C029F02C6A550E2B6E52DF65
:1002200002C027F001C026F001C02AF07F0E2B6E1D
:100230006ADF01C01EF0290E006E002EFED70000FE
:10024000929A899A010E6ADF1E5068DF010E246EB1
:1002500069DF1EC024F066DFADD0948282A251D047
:10026000080E016EC250C30B0110C26E216A2150EC
:10027000070809E3C282C2B2FED7C4502226000E8C
:100280002322212AF4D7233222322332223223326C
:1002900022321F0E2316300E225C246E000E2358CD
:1002A000256E296E24C028F02B6A7F0E2A6EFBDE95
:1002B00002C026F001C025F002C02AF001C029F0DA
:1002C0002C6A540E2B6EFEDE02C027F001C026F011
:1002D00001C02AF07F0E2B6E16DF01C01FF0290E21
:1002E000006E002EFED70000939A8A9A020E16DF47
:1002F0001F5014DF020E246E15DF1FC024F012DF22
:1003000059D0948482A456D00C0E016EC250C30BF7
:100310000110C26E216A2150070809E3C282C2B2ED
:10032000FED7C4502226000E2322212AF4D72332DE
:10033000223223322232233222321F0E2316C2826D
:10034000C2B2FED7C450256A246E290E245C266EE4
:10035000000E2558276E296E26C028F02B6A7F0EC6
:100360002A6EA1DE02C028F001C027F002C02AF0E8
:1003700001C029F02C6A520E2B6EA4DE02C029F0B7
:1003800001C028F001C02AF07F0E2B6EBCDE01C038
:1003900020F0290E006E002EFED7000093988A9858
:1003A000030EBCDE2050BADE030E246EBBDE20C07E
:1003B00024F0B8DE929A898A939A8A8A93988A88D6
:0403C000F8D6FFD795
:020000040030CA
:0E0000000002191E008300000FC00FE00F4029
:00000001FF
;PIC18F4520
;CRC=5A97  CREATED="08-Apr-09 22:25"
